:100000000C9442000C9485020C9485020C94850299
:100010000C9485020C9485020C9485020C94850244
:100020000C9485020C9485020C9485020C94850234
:100030000C9485020C9485020C9485020C94850224
:100040000C9485020C9485020C9485020C94850214
:100050000C94850200A500A6800060006C00050ECF
:100060000084008F000532006C007800051A008FB4
:10007000009A00053D00780084000526009A00A53E
:100080000005480011241FBECFE5D4E0DEBFCDBF80
:10009000E4E5F0E040E017C0B591A59135912591D8
:1000A000059107FD0CC095918591EF01F92FE82F7F
:1000B00005900D92A217B307D9F7FE0104C01D9257
:1000C000A217B307E1F7E338F40731F70E946C0099
:0800D0000C946A00F894FFCFC4
:1000D8000E941A0261E083E090E00E94240160E03F
:1000E80070E082E090E00E94F90160E070E080E05A
:1000F80090E00E94B70160E070E084E090E00E9428
:10010800B70161E070E082E090E00E94D80161E010
:1001180070E087E090E00E94D80161E070E083E041
:1001280090E00E94F90164E083E090E00E942401DD
:1001380063E082E090E00E94240163E087E090E0C1
:100148000E942401C1E082E090E00E946302892BB2
:1001580019F18091A5008C278093A50083E090E099
:100168000E947A028091A500882339F00E944A02F1
:100178008AE990E00E943B0206C00E944A0288E792
:1001880090E00E943B022FEF89E698E121508040E1
:100198009040E1F700C0000080E090E00E94570224
:1001A800892B19F18091A5008C278093A50082E006
:1001B80090E00E946F028091A500882339F00E9488
:1001C8004A0284E890E00E943B0206C00E944A026C
:1001D80080E690E00E943B022FEF89E698E12150EB
:1001E80080409040E1F700C0000084E090E00E9469
:1001F8005702892B09F4A7CF8091A5008C278093FB
:10020800A50087E090E00E946F028091A5008823F6
:1002180039F00E944A028FE890E00E943B0206C033
:100228000E944A028CE690E00E943B022FEF89E68A
:1002380098E1215080409040E1F700C0000083CF52
:100248006230B9F018F4613031F008956330F9F094
:10025800643059F108954BB321E030E0B90102C090
:10026800660F771F8A95E2F7CB01809584238BBBB5
:10027800089548B321E030E0B90102C0660F771F46
:100288008A95E2F7CB018095842388BB089545B30E
:1002980021E030E0B90102C0660F771F8A95E2F7C6
:1002A800CB018095842385BB089542B321E030E0DB
:1002B800B90102C0660F771F8A95E2F7CB018095D6
:0602C800842382BB0895AF
:1002CE009BB39F70282F207F922B9BBBC198C39A04
:1002DE0035E33A95F1F70000C398EFE3FFE131976C
:1002EE00F1F700C000002BB32F70F0E18F9FC0011B
:1002FE001124822B8BBBC39A35E03A95F1F700009F
:10030E00C3988FE39FE10197F1F700C000000895B5
:10031E009BB39F70282F207F922B9BBBC19AC39AB1
:10032E0035E33A95F1F70000C398EFE1F3E031972A
:10033E00F1F700C000002BB32F70F0E18F9FC001CA
:10034E001124822B8BBBC39A35E33A95F1F700004B
:10035E00C3988FE59DE60197F1F700C00000089560
:10036E006115710581F061307105D1F447B321E05B
:10037E0030E0B90102C0660F771F8A95E2F7CB0114
:10038E00842B87BB089547B321E030E0B90102C04A
:10039E00660F771F8A95E2F7CB018095842387BB82
:0203AE000895B0
:1003B0006115710581F061307105D1F444B321E01C
:1003C00030E0B90102C0660F771F8A95E2F7CB01D2
:1003D000842B84BB089544B321E030E0B90102C00E
:1003E000660F771F8A95E2F7CB018095842384BB43
:0203F00008956E
:1003F2006115710581F061307105D1F441B321E0DD
:1004020030E0B90102C0660F771F8A95E2F7CB018F
:10041200842B81BB089541B321E030E0B90102C0D1
:10042200660F771F8A95E2F7CB018095842381BB03
:0204320008952B
:100434008FEF8ABB8FE087BBC2982FEF89EF90E0E4
:10044400215080409040E1F700C0000083E30E9407
:10045400670182E30E94670188E20E9467018CE0E1
:100464000E94670186E00E94670181E00E946701A3
:020474000895E9
:10047600CF93DF93EC018881882331F021960E9487
:0E0486008F0189918111FBCFDF91CF910895F5
:1004940081E00E9467018FE39FE10197F1F700C0BB
:0A04A400000080E80E94670108953F
:1004AE0026B330E0A90102C0559547958A95E2F72B
:0804BE00CA018170992708951D
:1004C60020B330E0A90102C0559547958A95E2F719
:0804D600CA0181709927089505
:1004DE0095B321E030E002C0220F331F8A95E2F778
:0604EE00292725BB08953B
:1004F40092B321E030E002C0220F331F8A95E2F765
:06050400292722BB089527
:04050A000C9400004D
:0C050E004C454430206973204F464600E5
:0C051A004C454431206973204F464600D8
:0C0526004C454432206973204F464600CB
:0B0532004C454430206973204F4E0000
:0B053D004C454431206973204F4E00F4
:0B0548004C454432206973204F4E00E8
:00000001FF
